{
  "_format": "hh-sol-artifact-1",
  "contractName": "FundNFT",
  "sourceName": "contracts/FUNDailyNFT.sol",
  "abi": [
    {
      "inputs": [],
      "stateMutability": "nonpayable",
      "type": "constructor"
    },
    {
      "anonymous": false,
      "inputs": [
        {
          "indexed": true,
          "internalType": "address",
          "name": "owner",
          "type": "address"
        },
        {
          "indexed": true,
          "internalType": "address",
          "name": "approved",
          "type": "address"
        },
        {
          "indexed": true,
          "internalType": "uint256",
          "name": "tokenId",
          "type": "uint256"
        }
      ],
      "name": "Approval",
      "type": "event"
    },
    {
      "anonymous": false,
      "inputs": [
        {
          "indexed": true,
          "internalType": "address",
          "name": "owner",
          "type": "address"
        },
        {
          "indexed": true,
          "internalType": "address",
          "name": "operator",
          "type": "address"
        },
        {
          "indexed": false,
          "internalType": "bool",
          "name": "approved",
          "type": "bool"
        }
      ],
      "name": "ApprovalForAll",
      "type": "event"
    },
    {
      "anonymous": false,
      "inputs": [
        {
          "indexed": true,
          "internalType": "address",
          "name": "previousOwner",
          "type": "address"
        },
        {
          "indexed": true,
          "internalType": "address",
          "name": "newOwner",
          "type": "address"
        }
      ],
      "name": "OwnershipTransferred",
      "type": "event"
    },
    {
      "anonymous": false,
      "inputs": [
        {
          "indexed": true,
          "internalType": "address",
          "name": "from",
          "type": "address"
        },
        {
          "indexed": true,
          "internalType": "address",
          "name": "to",
          "type": "address"
        },
        {
          "indexed": true,
          "internalType": "uint256",
          "name": "tokenId",
          "type": "uint256"
        }
      ],
      "name": "Transfer",
      "type": "event"
    },
    {
      "inputs": [
        {
          "internalType": "address",
          "name": "to",
          "type": "address"
        },
        {
          "internalType": "uint256",
          "name": "tokenId",
          "type": "uint256"
        }
      ],
      "name": "approve",
      "outputs": [],
      "stateMutability": "nonpayable",
      "type": "function"
    },
    {
      "inputs": [
        {
          "internalType": "address",
          "name": "owner",
          "type": "address"
        }
      ],
      "name": "balanceOf",
      "outputs": [
        {
          "internalType": "uint256",
          "name": "",
          "type": "uint256"
        }
      ],
      "stateMutability": "view",
      "type": "function"
    },
    {
      "inputs": [
        {
          "internalType": "address",
          "name": "receiver",
          "type": "address"
        },
        {
          "internalType": "string",
          "name": "tokenURI",
          "type": "string"
        }
      ],
      "name": "createNFT",
      "outputs": [
        {
          "internalType": "uint256",
          "name": "",
          "type": "uint256"
        }
      ],
      "stateMutability": "nonpayable",
      "type": "function"
    },
    {
      "inputs": [
        {
          "internalType": "uint256",
          "name": "tokenId",
          "type": "uint256"
        }
      ],
      "name": "getApproved",
      "outputs": [
        {
          "internalType": "address",
          "name": "",
          "type": "address"
        }
      ],
      "stateMutability": "view",
      "type": "function"
    },
    {
      "inputs": [
        {
          "internalType": "address",
          "name": "owner",
          "type": "address"
        },
        {
          "internalType": "address",
          "name": "operator",
          "type": "address"
        }
      ],
      "name": "isApprovedForAll",
      "outputs": [
        {
          "internalType": "bool",
          "name": "",
          "type": "bool"
        }
      ],
      "stateMutability": "view",
      "type": "function"
    },
    {
      "inputs": [
        {
          "internalType": "address",
          "name": "_to",
          "type": "address"
        },
        {
          "internalType": "uint256",
          "name": "_tokenId",
          "type": "uint256"
        },
        {
          "internalType": "string",
          "name": "tokenURI_",
          "type": "string"
        }
      ],
      "name": "mint",
      "outputs": [],
      "stateMutability": "nonpayable",
      "type": "function"
    },
    {
      "inputs": [],
      "name": "name",
      "outputs": [
        {
          "internalType": "string",
          "name": "",
          "type": "string"
        }
      ],
      "stateMutability": "view",
      "type": "function"
    },
    {
      "inputs": [],
      "name": "owner",
      "outputs": [
        {
          "internalType": "address",
          "name": "",
          "type": "address"
        }
      ],
      "stateMutability": "view",
      "type": "function"
    },
    {
      "inputs": [
        {
          "internalType": "uint256",
          "name": "tokenId",
          "type": "uint256"
        }
      ],
      "name": "ownerOf",
      "outputs": [
        {
          "internalType": "address",
          "name": "",
          "type": "address"
        }
      ],
      "stateMutability": "view",
      "type": "function"
    },
    {
      "inputs": [],
      "name": "renounceOwnership",
      "outputs": [],
      "stateMutability": "nonpayable",
      "type": "function"
    },
    {
      "inputs": [
        {
          "internalType": "address",
          "name": "from",
          "type": "address"
        },
        {
          "internalType": "address",
          "name": "to",
          "type": "address"
        },
        {
          "internalType": "uint256",
          "name": "tokenId",
          "type": "uint256"
        }
      ],
      "name": "safeTransferFrom",
      "outputs": [],
      "stateMutability": "nonpayable",
      "type": "function"
    },
    {
      "inputs": [
        {
          "internalType": "address",
          "name": "from",
          "type": "address"
        },
        {
          "internalType": "address",
          "name": "to",
          "type": "address"
        },
        {
          "internalType": "uint256",
          "name": "tokenId",
          "type": "uint256"
        },
        {
          "internalType": "bytes",
          "name": "_data",
          "type": "bytes"
        }
      ],
      "name": "safeTransferFrom",
      "outputs": [],
      "stateMutability": "nonpayable",
      "type": "function"
    },
    {
      "inputs": [
        {
          "internalType": "address",
          "name": "operator",
          "type": "address"
        },
        {
          "internalType": "bool",
          "name": "approved",
          "type": "bool"
        }
      ],
      "name": "setApprovalForAll",
      "outputs": [],
      "stateMutability": "nonpayable",
      "type": "function"
    },
    {
      "inputs": [
        {
          "internalType": "string",
          "name": "baseURI_",
          "type": "string"
        }
      ],
      "name": "setBaseURI",
      "outputs": [],
      "stateMutability": "nonpayable",
      "type": "function"
    },
    {
      "inputs": [
        {
          "internalType": "bytes4",
          "name": "interfaceId",
          "type": "bytes4"
        }
      ],
      "name": "supportsInterface",
      "outputs": [
        {
          "internalType": "bool",
          "name": "",
          "type": "bool"
        }
      ],
      "stateMutability": "view",
      "type": "function"
    },
    {
      "inputs": [],
      "name": "symbol",
      "outputs": [
        {
          "internalType": "string",
          "name": "",
          "type": "string"
        }
      ],
      "stateMutability": "view",
      "type": "function"
    },
    {
      "inputs": [
        {
          "internalType": "uint256",
          "name": "tokenId",
          "type": "uint256"
        }
      ],
      "name": "tokenURI",
      "outputs": [
        {
          "internalType": "string",
          "name": "",
          "type": "string"
        }
      ],
      "stateMutability": "view",
      "type": "function"
    },
    {
      "inputs": [
        {
          "internalType": "address",
          "name": "from",
          "type": "address"
        },
        {
          "internalType": "address",
          "name": "to",
          "type": "address"
        },
        {
          "internalType": "uint256",
          "name": "tokenId",
          "type": "uint256"
        }
      ],
      "name": "transferFrom",
      "outputs": [],
      "stateMutability": "nonpayable",
      "type": "function"
    },
    {
      "inputs": [
        {
          "internalType": "address",
          "name": "newOwner",
          "type": "address"
        }
      ],
      "name": "transferOwnership",
      "outputs": [],
      "stateMutability": "nonpayable",
      "type": "function"
    }
  ],
  "bytecode": "0x60806040523480156200001157600080fd5b506040518060400160405280600881526020017f46554e4461796c690000000000000000000000000000000000000000000000008152506040518060400160405280600481526020017f46554e440000000000000000000000000000000000000000000000000000000081525081600090805190602001906200009692919062000171565b508060019080519060200190620000af92919062000171565b5050506000620000c46200016960201b60201c565b905080600660006101000a81548173ffffffffffffffffffffffffffffffffffffffff021916908373ffffffffffffffffffffffffffffffffffffffff1602179055508073ffffffffffffffffffffffffffffffffffffffff16600073ffffffffffffffffffffffffffffffffffffffff167f8be0079c531659141344cd1fd0a4f28419497f9722a3daafe3b4186f6b6457e060405160405180910390a35062000286565b600033905090565b8280546200017f9062000221565b90600052602060002090601f016020900481019282620001a35760008555620001ef565b82601f10620001be57805160ff1916838001178555620001ef565b82800160010185558215620001ef579182015b82811115620001ee578251825591602001919060010190620001d1565b5b509050620001fe919062000202565b5090565b5b808211156200021d57600081600090555060010162000203565b5090565b600060028204905060018216806200023a57607f821691505b6020821081141562000251576200025062000257565b5b50919050565b7f4e487b7100000000000000000000000000000000000000000000000000000000600052602260045260246000fd5b61311680620002966000396000f3fe608060405234801561001057600080fd5b50600436106101215760003560e01c8063715018a6116100ad578063b88d4fde11610071578063b88d4fde14610306578063c87b56dd14610322578063d3fc986414610352578063e985e9c51461036e578063f2fde38b1461039e57610121565b8063715018a6146102745780638da5cb5b1461027e57806395d89b411461029c578063a22cb465146102ba578063a5614033146102d657610121565b806323b872dd116100f457806323b872dd146101c057806342842e0e146101dc57806355f804b3146101f85780636352211e1461021457806370a082311461024457610121565b806301ffc9a71461012657806306fdde0314610156578063081812fc14610174578063095ea7b3146101a4575b600080fd5b610140600480360381019061013b9190612116565b6103ba565b60405161014d9190612580565b60405180910390f35b61015e61049c565b60405161016b919061259b565b60405180910390f35b61018e600480360381019061018991906121a9565b61052e565b60405161019b9190612519565b60405180910390f35b6101be60048036038101906101b99190612073565b6105b3565b005b6101da60048036038101906101d59190611f19565b6106cb565b005b6101f660048036038101906101f19190611f19565b61072b565b005b610212600480360381019061020d9190612168565b61074b565b005b61022e600480360381019061022991906121a9565b6107e1565b60405161023b9190612519565b60405180910390f35b61025e60048036038101906102599190611eb4565b610893565b60405161026b91906127dd565b60405180910390f35b61027c61094b565b005b610286610a88565b6040516102939190612519565b60405180910390f35b6102a4610ab2565b6040516102b1919061259b565b60405180910390f35b6102d460048036038101906102cf9190611fe3565b610b44565b005b6102f060048036038101906102eb919061201f565b610cc5565b6040516102fd91906127dd565b60405180910390f35b610320600480360381019061031b9190611f68565b610d79565b005b61033c600480360381019061033791906121a9565b610ddb565b604051610349919061259b565b60405180910390f35b61036c600480360381019061036791906120af565b610e82565b005b61038860048036038101906103839190611edd565b610f17565b6040516103959190612580565b60405180910390f35b6103b860048036038101906103b39190611eb4565b610fab565b005b60007f80ac58cd000000000000000000000000000000000000000000000000000000007bffffffffffffffffffffffffffffffffffffffffffffffffffffffff1916827bffffffffffffffffffffffffffffffffffffffffffffffffffffffff1916148061048557507f5b5e139f000000000000000000000000000000000000000000000000000000007bffffffffffffffffffffffffffffffffffffffffffffffffffffffff1916827bffffffffffffffffffffffffffffffffffffffffffffffffffffffff1916145b80610495575061049482611157565b5b9050919050565b6060600080546104ab90612a33565b80601f01602080910402602001604051908101604052809291908181526020018280546104d790612a33565b80156105245780601f106104f957610100808354040283529160200191610524565b820191906000526020600020905b81548152906001019060200180831161050757829003601f168201915b5050505050905090565b6000610539826111c1565b610578576040517f08c379a000000000000000000000000000000000000000000000000000000000815260040161056f906126fd565b60405180910390fd5b6004600083815260200190815260200160002060009054906101000a900473ffffffffffffffffffffffffffffffffffffffff169050919050565b60006105be826107e1565b90508073ffffffffffffffffffffffffffffffffffffffff168373ffffffffffffffffffffffffffffffffffffffff16141561062f576040517f08c379a00000000000000000000000000000000000000000000000000000000081526004016106269061279d565b60405180910390fd5b8073ffffffffffffffffffffffffffffffffffffffff1661064e61122d565b73ffffffffffffffffffffffffffffffffffffffff16148061067d575061067c8161067761122d565b610f17565b5b6106bc576040517f08c379a00000000000000000000000000000000000000000000000000000000081526004016106b39061267d565b60405180910390fd5b6106c68383611235565b505050565b6106dc6106d661122d565b826112ee565b61071b576040517f08c379a0000000000000000000000000000000000000000000000000000000008152600401610712906127bd565b60405180910390fd5b6107268383836113cc565b505050565b61074683838360405180602001604052806000815250610d79565b505050565b61075361122d565b73ffffffffffffffffffffffffffffffffffffffff16610771610a88565b73ffffffffffffffffffffffffffffffffffffffff16146107c7576040517f08c379a00000000000000000000000000000000000000000000000000000000081526004016107be9061273d565b60405180910390fd5b80600990805190602001906107dd929190611cd8565b5050565b6000806002600084815260200190815260200160002060009054906101000a900473ffffffffffffffffffffffffffffffffffffffff169050600073ffffffffffffffffffffffffffffffffffffffff168173ffffffffffffffffffffffffffffffffffffffff16141561088a576040517f08c379a0000000000000000000000000000000000000000000000000000000008152600401610881906126bd565b60405180910390fd5b80915050919050565b60008073ffffffffffffffffffffffffffffffffffffffff168273ffffffffffffffffffffffffffffffffffffffff161415610904576040517f08c379a00000000000000000000000000000000000000000000000000000000081526004016108fb9061269d565b60405180910390fd5b600360008373ffffffffffffffffffffffffffffffffffffffff1673ffffffffffffffffffffffffffffffffffffffff168152602001908152602001600020549050919050565b61095361122d565b73ffffffffffffffffffffffffffffffffffffffff16610971610a88565b73ffffffffffffffffffffffffffffffffffffffff16146109c7576040517f08c379a00000000000000000000000000000000000000000000000000000000081526004016109be9061273d565b60405180910390fd5b600073ffffffffffffffffffffffffffffffffffffffff16600660009054906101000a900473ffffffffffffffffffffffffffffffffffffffff1673ffffffffffffffffffffffffffffffffffffffff167f8be0079c531659141344cd1fd0a4f28419497f9722a3daafe3b4186f6b6457e060405160405180910390a36000600660006101000a81548173ffffffffffffffffffffffffffffffffffffffff021916908373ffffffffffffffffffffffffffffffffffffffff160217905550565b6000600660009054906101000a900473ffffffffffffffffffffffffffffffffffffffff16905090565b606060018054610ac190612a33565b80601f0160208091040260200160405190810160405280929190818152602001828054610aed90612a33565b8015610b3a5780601f10610b0f57610100808354040283529160200191610b3a565b820191906000526020600020905b815481529060010190602001808311610b1d57829003601f168201915b5050505050905090565b610b4c61122d565b73ffffffffffffffffffffffffffffffffffffffff168273ffffffffffffffffffffffffffffffffffffffff161415610bba576040517f08c379a0000000000000000000000000000000000000000000000000000000008152600401610bb19061263d565b60405180910390fd5b8060056000610bc761122d565b73ffffffffffffffffffffffffffffffffffffffff1673ffffffffffffffffffffffffffffffffffffffff16815260200190815260200160002060008473ffffffffffffffffffffffffffffffffffffffff1673ffffffffffffffffffffffffffffffffffffffff16815260200190815260200160002060006101000a81548160ff0219169083151502179055508173ffffffffffffffffffffffffffffffffffffffff16610c7461122d565b73ffffffffffffffffffffffffffffffffffffffff167f17307eab39ab6107e8899845ad3d59bd9653f200f220920489ca2b5937696c3183604051610cb99190612580565b60405180910390a35050565b6000610ccf61122d565b73ffffffffffffffffffffffffffffffffffffffff16610ced610a88565b73ffffffffffffffffffffffffffffffffffffffff1614610d43576040517f08c379a0000000000000000000000000000000000000000000000000000000008152600401610d3a9061273d565b60405180910390fd5b610d4d6007611628565b6000610d59600761163e565b9050610d65848261164c565b610d6f818461181a565b8091505092915050565b610d8a610d8461122d565b836112ee565b610dc9576040517f08c379a0000000000000000000000000000000000000000000000000000000008152600401610dc0906127bd565b60405180910390fd5b610dd58484848461188e565b50505050565b6060610de6826111c1565b610e25576040517f08c379a0000000000000000000000000000000000000000000000000000000008152600401610e1c9061277d565b60405180910390fd5b6000610e2f6118ea565b90506000815111610e4f5760405180602001604052806000815250610e7a565b80610e598461197c565b604051602001610e6a9291906124f5565b6040516020818303038152906040525b915050919050565b610e8a61122d565b73ffffffffffffffffffffffffffffffffffffffff16610ea8610a88565b73ffffffffffffffffffffffffffffffffffffffff1614610efe576040517f08c379a0000000000000000000000000000000000000000000000000000000008152600401610ef59061273d565b60405180910390fd5b610f08838361164c565b610f12828261181a565b505050565b6000600560008473ffffffffffffffffffffffffffffffffffffffff1673ffffffffffffffffffffffffffffffffffffffff16815260200190815260200160002060008373ffffffffffffffffffffffffffffffffffffffff1673ffffffffffffffffffffffffffffffffffffffff16815260200190815260200160002060009054906101000a900460ff16905092915050565b610fb361122d565b73ffffffffffffffffffffffffffffffffffffffff16610fd1610a88565b73ffffffffffffffffffffffffffffffffffffffff1614611027576040517f08c379a000000000000000000000000000000000000000000000000000000000815260040161101e9061273d565b60405180910390fd5b600073ffffffffffffffffffffffffffffffffffffffff168173ffffffffffffffffffffffffffffffffffffffff161415611097576040517f08c379a000000000000000000000000000000000000000000000000000000000815260040161108e906125dd565b60405180910390fd5b8073ffffffffffffffffffffffffffffffffffffffff16600660009054906101000a900473ffffffffffffffffffffffffffffffffffffffff1673ffffffffffffffffffffffffffffffffffffffff167f8be0079c531659141344cd1fd0a4f28419497f9722a3daafe3b4186f6b6457e060405160405180910390a380600660006101000a81548173ffffffffffffffffffffffffffffffffffffffff021916908373ffffffffffffffffffffffffffffffffffffffff16021790555050565b60007f01ffc9a7000000000000000000000000000000000000000000000000000000007bffffffffffffffffffffffffffffffffffffffffffffffffffffffff1916827bffffffffffffffffffffffffffffffffffffffffffffffffffffffff1916149050919050565b60008073ffffffffffffffffffffffffffffffffffffffff166002600084815260200190815260200160002060009054906101000a900473ffffffffffffffffffffffffffffffffffffffff1673ffffffffffffffffffffffffffffffffffffffff1614159050919050565b600033905090565b816004600083815260200190815260200160002060006101000a81548173ffffffffffffffffffffffffffffffffffffffff021916908373ffffffffffffffffffffffffffffffffffffffff160217905550808273ffffffffffffffffffffffffffffffffffffffff166112a8836107e1565b73ffffffffffffffffffffffffffffffffffffffff167f8c5be1e5ebec7d5bd14f71427d1e84f3dd0314c0f7b2291e5b200ac8c7c3b92560405160405180910390a45050565b60006112f9826111c1565b611338576040517f08c379a000000000000000000000000000000000000000000000000000000000815260040161132f9061265d565b60405180910390fd5b6000611343836107e1565b90508073ffffffffffffffffffffffffffffffffffffffff168473ffffffffffffffffffffffffffffffffffffffff1614806113b257508373ffffffffffffffffffffffffffffffffffffffff1661139a8461052e565b73ffffffffffffffffffffffffffffffffffffffff16145b806113c357506113c28185610f17565b5b91505092915050565b8273ffffffffffffffffffffffffffffffffffffffff166113ec826107e1565b73ffffffffffffffffffffffffffffffffffffffff1614611442576040517f08c379a00000000000000000000000000000000000000000000000000000000081526004016114399061275d565b60405180910390fd5b600073ffffffffffffffffffffffffffffffffffffffff168273ffffffffffffffffffffffffffffffffffffffff1614156114b2576040517f08c379a00000000000000000000000000000000000000000000000000000000081526004016114a99061261d565b60405180910390fd5b6114bd838383611b29565b6114c8600082611235565b6001600360008573ffffffffffffffffffffffffffffffffffffffff1673ffffffffffffffffffffffffffffffffffffffff16815260200190815260200160002060008282546115189190612949565b925050819055506001600360008473ffffffffffffffffffffffffffffffffffffffff1673ffffffffffffffffffffffffffffffffffffffff168152602001908152602001600020600082825461156f91906128c2565b92505081905550816002600083815260200190815260200160002060006101000a81548173ffffffffffffffffffffffffffffffffffffffff021916908373ffffffffffffffffffffffffffffffffffffffff160217905550808273ffffffffffffffffffffffffffffffffffffffff168473ffffffffffffffffffffffffffffffffffffffff167fddf252ad1be2c89b69c2b068fc378daa952ba7f163c4a11628f55a4df523b3ef60405160405180910390a4505050565b6001816000016000828254019250508190555050565b600081600001549050919050565b600073ffffffffffffffffffffffffffffffffffffffff168273ffffffffffffffffffffffffffffffffffffffff1614156116bc576040517f08c379a00000000000000000000000000000000000000000000000000000000081526004016116b3906126dd565b60405180910390fd5b6116c5816111c1565b15611705576040517f08c379a00000000000000000000000000000000000000000000000000000000081526004016116fc906125fd565b60405180910390fd5b61171160008383611b29565b6001600360008473ffffffffffffffffffffffffffffffffffffffff1673ffffffffffffffffffffffffffffffffffffffff168152602001908152602001600020600082825461176191906128c2565b92505081905550816002600083815260200190815260200160002060006101000a81548173ffffffffffffffffffffffffffffffffffffffff021916908373ffffffffffffffffffffffffffffffffffffffff160217905550808273ffffffffffffffffffffffffffffffffffffffff16600073ffffffffffffffffffffffffffffffffffffffff167fddf252ad1be2c89b69c2b068fc378daa952ba7f163c4a11628f55a4df523b3ef60405160405180910390a45050565b611823826111c1565b611862576040517f08c379a00000000000000000000000000000000000000000000000000000000081526004016118599061271d565b60405180910390fd5b80600860008481526020019081526020016000209080519060200190611889929190611cd8565b505050565b6118998484846113cc565b6118a584848484611b2e565b6118e4576040517f08c379a00000000000000000000000000000000000000000000000000000000081526004016118db906125bd565b60405180910390fd5b50505050565b6060600980546118f990612a33565b80601f016020809104026020016040519081016040528092919081815260200182805461192590612a33565b80156119725780601f1061194757610100808354040283529160200191611972565b820191906000526020600020905b81548152906001019060200180831161195557829003601f168201915b5050505050905090565b606060008214156119c4576040518060400160405280600181526020017f30000000000000000000000000000000000000000000000000000000000000008152509050611b24565b600082905060005b600082146119f65780806119df90612a96565b915050600a826119ef9190612918565b91506119cc565b60008167ffffffffffffffff811115611a38577f4e487b7100000000000000000000000000000000000000000000000000000000600052604160045260246000fd5b6040519080825280601f01601f191660200182016040528015611a6a5781602001600182028036833780820191505090505b5090505b60008514611b1d57600182611a839190612949565b9150600a85611a929190612adf565b6030611a9e91906128c2565b60f81b818381518110611ada577f4e487b7100000000000000000000000000000000000000000000000000000000600052603260045260246000fd5b60200101907effffffffffffffffffffffffffffffffffffffffffffffffffffffffffffff1916908160001a905350600a85611b169190612918565b9450611a6e565b8093505050505b919050565b505050565b6000611b4f8473ffffffffffffffffffffffffffffffffffffffff16611cc5565b15611cb8578373ffffffffffffffffffffffffffffffffffffffff1663150b7a02611b7861122d565b8786866040518563ffffffff1660e01b8152600401611b9a9493929190612534565b602060405180830381600087803b158015611bb457600080fd5b505af1925050508015611be557506040513d601f19601f82011682018060405250810190611be2919061213f565b60015b611c68573d8060008114611c15576040519150601f19603f3d011682016040523d82523d6000602084013e611c1a565b606091505b50600081511415611c60576040517f08c379a0000000000000000000000000000000000000000000000000000000008152600401611c57906125bd565b60405180910390fd5b805181602001fd5b63150b7a0260e01b7bffffffffffffffffffffffffffffffffffffffffffffffffffffffff1916817bffffffffffffffffffffffffffffffffffffffffffffffffffffffff191614915050611cbd565b600190505b949350505050565b600080823b905060008111915050919050565b828054611ce490612a33565b90600052602060002090601f016020900481019282611d065760008555611d4d565b82601f10611d1f57805160ff1916838001178555611d4d565b82800160010185558215611d4d579182015b82811115611d4c578251825591602001919060010190611d31565b5b509050611d5a9190611d5e565b5090565b5b80821115611d77576000816000905550600101611d5f565b5090565b6000611d8e611d898461281d565b6127f8565b905082815260208101848484011115611da657600080fd5b611db18482856129f1565b509392505050565b6000611dcc611dc78461284e565b6127f8565b905082815260208101848484011115611de457600080fd5b611def8482856129f1565b509392505050565b600081359050611e0681613084565b92915050565b600081359050611e1b8161309b565b92915050565b600081359050611e30816130b2565b92915050565b600081519050611e45816130b2565b92915050565b600082601f830112611e5c57600080fd5b8135611e6c848260208601611d7b565b91505092915050565b600082601f830112611e8657600080fd5b8135611e96848260208601611db9565b91505092915050565b600081359050611eae816130c9565b92915050565b600060208284031215611ec657600080fd5b6000611ed484828501611df7565b91505092915050565b60008060408385031215611ef057600080fd5b6000611efe85828601611df7565b9250506020611f0f85828601611df7565b9150509250929050565b600080600060608486031215611f2e57600080fd5b6000611f3c86828701611df7565b9350506020611f4d86828701611df7565b9250506040611f5e86828701611e9f565b9150509250925092565b60008060008060808587031215611f7e57600080fd5b6000611f8c87828801611df7565b9450506020611f9d87828801611df7565b9350506040611fae87828801611e9f565b925050606085013567ffffffffffffffff811115611fcb57600080fd5b611fd787828801611e4b565b91505092959194509250565b60008060408385031215611ff657600080fd5b600061200485828601611df7565b925050602061201585828601611e0c565b9150509250929050565b6000806040838503121561203257600080fd5b600061204085828601611df7565b925050602083013567ffffffffffffffff81111561205d57600080fd5b61206985828601611e75565b9150509250929050565b6000806040838503121561208657600080fd5b600061209485828601611df7565b92505060206120a585828601611e9f565b9150509250929050565b6000806000606084860312156120c457600080fd5b60006120d286828701611df7565b93505060206120e386828701611e9f565b925050604084013567ffffffffffffffff81111561210057600080fd5b61210c86828701611e75565b9150509250925092565b60006020828403121561212857600080fd5b600061213684828501611e21565b91505092915050565b60006020828403121561215157600080fd5b600061215f84828501611e36565b91505092915050565b60006020828403121561217a57600080fd5b600082013567ffffffffffffffff81111561219457600080fd5b6121a084828501611e75565b91505092915050565b6000602082840312156121bb57600080fd5b60006121c984828501611e9f565b91505092915050565b6121db8161297d565b82525050565b6121ea8161298f565b82525050565b60006121fb8261287f565b6122058185612895565b9350612215818560208601612a00565b61221e81612bcc565b840191505092915050565b60006122348261288a565b61223e81856128a6565b935061224e818560208601612a00565b61225781612bcc565b840191505092915050565b600061226d8261288a565b61227781856128b7565b9350612287818560208601612a00565b80840191505092915050565b60006122a06032836128a6565b91506122ab82612bdd565b604082019050919050565b60006122c36026836128a6565b91506122ce82612c2c565b604082019050919050565b60006122e6601c836128a6565b91506122f182612c7b565b602082019050919050565b60006123096024836128a6565b915061231482612ca4565b604082019050919050565b600061232c6019836128a6565b915061233782612cf3565b602082019050919050565b600061234f602c836128a6565b915061235a82612d1c565b604082019050919050565b60006123726038836128a6565b915061237d82612d6b565b604082019050919050565b6000612395602a836128a6565b91506123a082612dba565b604082019050919050565b60006123b86029836128a6565b91506123c382612e09565b604082019050919050565b60006123db6020836128a6565b91506123e682612e58565b602082019050919050565b60006123fe602c836128a6565b915061240982612e81565b604082019050919050565b6000612421602c836128a6565b915061242c82612ed0565b604082019050919050565b60006124446020836128a6565b915061244f82612f1f565b602082019050919050565b60006124676029836128a6565b915061247282612f48565b604082019050919050565b600061248a602f836128a6565b915061249582612f97565b604082019050919050565b60006124ad6021836128a6565b91506124b882612fe6565b604082019050919050565b60006124d06031836128a6565b91506124db82613035565b604082019050919050565b6124ef816129e7565b82525050565b60006125018285612262565b915061250d8284612262565b91508190509392505050565b600060208201905061252e60008301846121d2565b92915050565b600060808201905061254960008301876121d2565b61255660208301866121d2565b61256360408301856124e6565b818103606083015261257581846121f0565b905095945050505050565b600060208201905061259560008301846121e1565b92915050565b600060208201905081810360008301526125b58184612229565b905092915050565b600060208201905081810360008301526125d681612293565b9050919050565b600060208201905081810360008301526125f6816122b6565b9050919050565b60006020820190508181036000830152612616816122d9565b9050919050565b60006020820190508181036000830152612636816122fc565b9050919050565b600060208201905081810360008301526126568161231f565b9050919050565b6000602082019050818103600083015261267681612342565b9050919050565b6000602082019050818103600083015261269681612365565b9050919050565b600060208201905081810360008301526126b681612388565b9050919050565b600060208201905081810360008301526126d6816123ab565b9050919050565b600060208201905081810360008301526126f6816123ce565b9050919050565b60006020820190508181036000830152612716816123f1565b9050919050565b6000602082019050818103600083015261273681612414565b9050919050565b6000602082019050818103600083015261275681612437565b9050919050565b600060208201905081810360008301526127768161245a565b9050919050565b600060208201905081810360008301526127968161247d565b9050919050565b600060208201905081810360008301526127b6816124a0565b9050919050565b600060208201905081810360008301526127d6816124c3565b9050919050565b60006020820190506127f260008301846124e6565b92915050565b6000612802612813565b905061280e8282612a65565b919050565b6000604051905090565b600067ffffffffffffffff82111561283857612837612b9d565b5b61284182612bcc565b9050602081019050919050565b600067ffffffffffffffff82111561286957612868612b9d565b5b61287282612bcc565b9050602081019050919050565b600081519050919050565b600081519050919050565b600082825260208201905092915050565b600082825260208201905092915050565b600081905092915050565b60006128cd826129e7565b91506128d8836129e7565b9250827fffffffffffffffffffffffffffffffffffffffffffffffffffffffffffffffff0382111561290d5761290c612b10565b5b828201905092915050565b6000612923826129e7565b915061292e836129e7565b92508261293e5761293d612b3f565b5b828204905092915050565b6000612954826129e7565b915061295f836129e7565b92508282101561297257612971612b10565b5b828203905092915050565b6000612988826129c7565b9050919050565b60008115159050919050565b60007fffffffff0000000000000000000000000000000000000000000000000000000082169050919050565b600073ffffffffffffffffffffffffffffffffffffffff82169050919050565b6000819050919050565b82818337600083830152505050565b60005b83811015612a1e578082015181840152602081019050612a03565b83811115612a2d576000848401525b50505050565b60006002820490506001821680612a4b57607f821691505b60208210811415612a5f57612a5e612b6e565b5b50919050565b612a6e82612bcc565b810181811067ffffffffffffffff82111715612a8d57612a8c612b9d565b5b80604052505050565b6000612aa1826129e7565b91507fffffffffffffffffffffffffffffffffffffffffffffffffffffffffffffffff821415612ad457612ad3612b10565b5b600182019050919050565b6000612aea826129e7565b9150612af5836129e7565b925082612b0557612b04612b3f565b5b828206905092915050565b7f4e487b7100000000000000000000000000000000000000000000000000000000600052601160045260246000fd5b7f4e487b7100000000000000000000000000000000000000000000000000000000600052601260045260246000fd5b7f4e487b7100000000000000000000000000000000000000000000000000000000600052602260045260246000fd5b7f4e487b7100000000000000000000000000000000000000000000000000000000600052604160045260246000fd5b6000601f19601f8301169050919050565b7f4552433732313a207472616e7366657220746f206e6f6e20455243373231526560008201527f63656976657220696d706c656d656e7465720000000000000000000000000000602082015250565b7f4f776e61626c653a206e6577206f776e657220697320746865207a65726f206160008201527f6464726573730000000000000000000000000000000000000000000000000000602082015250565b7f4552433732313a20746f6b656e20616c7265616479206d696e74656400000000600082015250565b7f4552433732313a207472616e7366657220746f20746865207a65726f2061646460008201527f7265737300000000000000000000000000000000000000000000000000000000602082015250565b7f4552433732313a20617070726f766520746f2063616c6c657200000000000000600082015250565b7f4552433732313a206f70657261746f7220717565727920666f72206e6f6e657860008201527f697374656e7420746f6b656e0000000000000000000000000000000000000000602082015250565b7f4552433732313a20617070726f76652063616c6c6572206973206e6f74206f7760008201527f6e6572206e6f7220617070726f76656420666f7220616c6c0000000000000000602082015250565b7f4552433732313a2062616c616e636520717565727920666f7220746865207a6560008201527f726f206164647265737300000000000000000000000000000000000000000000602082015250565b7f4552433732313a206f776e657220717565727920666f72206e6f6e657869737460008201527f656e7420746f6b656e0000000000000000000000000000000000000000000000602082015250565b7f4552433732313a206d696e7420746f20746865207a65726f2061646472657373600082015250565b7f4552433732313a20617070726f76656420717565727920666f72206e6f6e657860008201527f697374656e7420746f6b656e0000000000000000000000000000000000000000602082015250565b7f4552433732314d657461646174613a2055524920736574206f66206e6f6e657860008201527f697374656e7420746f6b656e0000000000000000000000000000000000000000602082015250565b7f4f776e61626c653a2063616c6c6572206973206e6f7420746865206f776e6572600082015250565b7f4552433732313a207472616e73666572206f6620746f6b656e2074686174206960008201527f73206e6f74206f776e0000000000000000000000000000000000000000000000602082015250565b7f4552433732314d657461646174613a2055524920717565727920666f72206e6f60008201527f6e6578697374656e7420746f6b656e0000000000000000000000000000000000602082015250565b7f4552433732313a20617070726f76616c20746f2063757272656e74206f776e6560008201527f7200000000000000000000000000000000000000000000000000000000000000602082015250565b7f4552433732313a207472616e736665722063616c6c6572206973206e6f74206f60008201527f776e6572206e6f7220617070726f766564000000000000000000000000000000602082015250565b61308d8161297d565b811461309857600080fd5b50565b6130a48161298f565b81146130af57600080fd5b50565b6130bb8161299b565b81146130c657600080fd5b50565b6130d2816129e7565b81146130dd57600080fd5b5056fea264697066735822122062579a9021fe87daa7d9f714e200a7c142a74e05dcd78197670fbc621096dff064736f6c63430008040033",
  "linkReferences": {},
  "deployedLinkReferences": {}
}